:020000040800F2
:10000000D007002055020008815D0008835D0008CC
:10001000875D00088B5D00088F5D00080000000010
:10002000000000000000000000000000935D0008D8
:10003000955D000800000000975D00089B5D0008CA
:100040006F0200086F0200086F0200086F020008CC
:100050006F0200086F0200086F0200086F020008BC
:100060006F0200086F0200086F02000829440008B0
:1000700035440008414400084D4400085944000834
:1000800065440008714400086F0200086F02000810
:100090006F0200086F0200086F0200086F0200087C
:1000A0006F0200086F0200086F0200086F0200086C
:1000B0006F0200086F0200086F0200086F0200085C
:1000C0006F0200086F0200086F0200086F0200084C
:1000D0006F0200086F0200086F0200086F0200083C
:1000E0006F0200086F0200086F0200086F0200082C
:1000F0006F0200086F0200086F0200087D440008CC
:100100006F0200086F0200086F0200086F0200080B
:100110006F0200086F0200086F0200086F020008FB
:1001200089440008934400089F440008AB44000839
:10013000B74400086F0200086F0200086F02000851
:100140006F0200086F0200086F0200086F020008CB
:10015000C3440008CF440008DB4400086F020008D5
:100160006F0200086F0200086F0200086F020008AB
:100170006F0200086F0200086F0200086F0200089B
:100180006F0200086F0200086F0200086F0200088B
:100190006F0200086F0200086F0200086F0200087B
:1001A0006F0200086F0200086F02000800F002F8FA
:1001B00000F040F80AA090E8000C82448344AAF1C1
:1001C0000107DA4501D100F035F8AFF2090EBAE8BF
:1001D0000F0013F0010F18BFFB1A43F0010318477B
:1001E000C48D0000E48D0000103A24BF78C878C1A7
:1001F000FAD8520724BF30C830C144BF04680C602D
:10020000704700000023002400250026103A28BF74
:1002100078C1FBD8520728BF30C148BF0B60704778
:100220001FB506F0A5FA9DE8030005F053FF1FBDBA
:1002300010B510BD05F0AAFF1146FFF7F1FF05F05C
:100240004EFB05F0C8FF03B4FFF7F2FF03BC05F057
:10025000F9FF00000948804709480047FEE7FEE72C
:10026000FEE7FEE7FEE7FEE7FEE7FEE7FEE7FEE766
:1002700004480549054A064B70470000B55E000872
:10028000AD010008D0010020D0070020D0030020DD
:10029000D003002032490143324A1160704770B5E3
:1002A000002100230F22C4781CB32E4C246804F4D0
:1002B000E064C4F5E064C4F30721C1F10404E3B2CF
:1002C0000A4144789C40E1B28478144021430C07F1
:1002D000210E254C05786155047804F01F05012492
:1002E000AC4005786D11AD0005F1E025C5F8004181
:1002F00009E0047804F01F050124AC401B4D06788A
:10030000761145F8264070BD194A0A400243154B44
:100310001B1F1A60704739B1124A121D126802433E
:10032000104B1B1D1A6006E00E4A121D1268824314
:100330000C4B1B1D1A607047042808D14FF0E021B8
:10034000096941F004014FF0E022116107E04FF02C
:10035000E021096921F004014FF0E02211617047AA
:100360000000FA050CED00E000E400E080E100E0B0
:1003700080FFFF1FF648006840F00100F449086064
:100380000020F34908310860F1480068F14908404D
:10039000EF490860F048091D0860F048EC498431D5
:1003A0000860ED481038091D0860E948006820F42D
:1003B0008020E74908600020E5490C310860E449E5
:1003C0008C31086070470021E14A921C117011467F
:1003D0000870704710B501460022002300204A1122
:1003E000012A02D1DA4C236808E0022A03D1D84C52
:1003F0007034236802E0D64C7434236801F01F0285
:10040000012494401C400CB1012000E0002010BDEC
:1004100038B5002000900024002500BF3120FFF7F0
:10042000D9FF05460098401C00900098B0F5A04FF9
:1004300001D0002DF2D03120FFF7CCFF08B101240C
:1004400000E00024204638BD01460020C04A106864
:1004500020F0F80040EAC10010607047C049086011
:1004600070470021BA4A703211701170012802D011
:1004700004280AD104E00121B54A7032117005E068
:100480000521B34A7032117000E000BF00BF704711
:10049000B4490860704770B5049C41EA8215012692
:1004A000C6EB530645EA0645054345EA0465A84EF2
:1004B000361D356070BDAA490866704710B58301C6
:1004C00043EA016343EA0273A14C8434236010BD04
:1004D000A3498866704710B5830143EA016343EA84
:1004E00002739B4C8834236010BD9D490867704798
:1004F0009B49C864704702460020954B0833186832
:1005000020F0EC6042EA01031843914B0833186075
:100510007047024600208E4B0833186820F0784060
:1005200042EA010318438A4B0833186070470146BA
:100530000020874A0832106820F00300084310604A
:10054000704783480830006800F00C00704701468F
:1005500000207F4A0832106820F0F0000843106045
:100560007047014600207A4A0832106820F4E050B3
:1005700008431060704701460020754A0832106831
:1005800020F4604040EAC10010607047F0B50021DF
:10059000002200240225002602236D4F08373F6801
:1005A00007F00C0121B1042905D0082937D105E055
:1005B0006D4F076036E06D4F076033E0644F3F1DBD
:1005C0003F68C7F38056624F3F1D3F6807F03F0307
:1005D0006EB1664FB7FBF3F7DFF874C10CF1040C92
:1005E000DCF800C0CCF3881C07FB0CF40CE05E4F79
:1005F000B7FBF3F7DFF858C10CF1040CDCF800C0CE
:10060000CCF3881C07FB0CF4514F3F1D3F68C7F328
:1006100001477F1C7D00B4FBF5F7076002E0524FF5
:10062000076000BF00BF4A4F08373F6807F0F0017E
:1006300009094F4F7A5C0768D7404760444F083735
:100640003F6807F4E051890A494F7A5C4768D74010
:1006500087603F4F08373F6807F46041490B444FBC
:100660007A5C4768D740C760F0BD002100F4407253
:10067000B2F5407F0AD1364A0832116821F4F811E8
:100680003C4A02401143324A08321160304A70320B
:100690001268C0F30B031A432D4B70331A60704776
:1006A00030494439086070472E4940390860704726
:1006B00031490860704701460020254A8C32106895
:1006C00020F4401008431060704701460020204A83
:1006D0008C32106820F440000843106070470146D7
:1006E00000201B4A8C32106820F01F004A1E104365
:1006F000174A8C321060704701460020144A8C3231
:10070000106820F4F8504A1E40EA0220104A8C3249
:1007100010607047014600200D4A8C32106820F4AA
:10072000403008431060704714490860704739B181
:10073000074A303212680243054B30331A6006E034
:10074000034A303212688243014B30331A607047DB
:1007500000380240FFFFF6EA10300024003000208D
:1007600000004742800E47420024F40040787D019B
:1007700000000020FFFCFF0F5C014742E0114742F0
:1007800029B1934A12680243914B1A6004E0904ADF
:10079000126882438E4B1A60704739B18C4A121D21
:1007A000126802438A4B1B1D1A6006E0884A121D1C
:1007B00012688243864B1B1D1A60704739B1844A08
:1007C0000C3212680243824B0C331A6006E0804AF6
:1007D0000C32126882437E4B0C331A60704739B179
:1007E0007B4A103212680243794B10331A6006E0DC
:1007F000774A103212688243754B10331A60704783
:1008000039B1734A243A12680243714B243B1A608F
:1008100006E06F4A243A126882436D4B243B1A600B
:10082000704739B16A4A203A12680243684B203B4C
:100830001A6006E0664A203A12688243644B203B05
:100840001A60704739B1624A1C3A12680243604B21
:100850001C3B1A6006E05E4A1C3A126882435C4BFD
:100860001C3B1A60704739B1594A143A1268024366
:10087000574B143B1A6006E0554A143A12688243FB
:10088000534B143B1A60704739B1514A103A126801
:1008900002434F4B103B1A6006E04D4A103A126873
:1008A00082434B4B103B1A60704739B1484A1C32A7
:1008B00012680243464B1C331A6006E0444A1C325D
:1008C00012688243424B1C331A60704739B1404A68
:1008D0002032126802433E4B20331A6006E03C4A45
:1008E0002032126882433A4B20331A60704739B184
:1008F000374A243212680243354B24331A6006E02B
:10090000334A243212688243314B24331A607047D1
:1009100039B12F4A2C32126802432D4B2C331A6006
:1009200006E02B4A2C3212688243294B2C331A6082
:10093000704739B1264A303212680243244B3033B3
:100940001A6006E0224A303212688243204B30336C
:100950001A607047012808D11D493C31096841F0EF
:1009600008011B4A3C32116007E019493C31096813
:1009700021F00801164A3C321160704739B1144A1F
:10098000273A12780243124B273B1A7006E0104AAE
:10099000273A127882430E4B273B1A7070470C4857
:1009A0004030006840F0807009494031086070476D
:1009B00001460020064A283A12680A400AB101207E
:1009C00000E0002070470249263908707047000097
:1009D0003438024010B504469848844208D10121B9
:1009E0000846FFF70DFF00210120FFF709FF76E021
:1009F0009348844208D101210220FFF701FF002122
:100A00000220FFF7FDFE6AE08E48844208D10121F2
:100A10000420FFF7F5FE00210420FFF7F1FE5EE061
:100A20008948844208D101210820FFF7E9FE00210E
:100A30000820FFF7E5FE52E08448844208D10121F6
:100A40001020FFF7DDFE00211020FFF7D9FE46E061
:100A50007F48844208D101212020FFF7D1FE0021E8
:100A60002020FFF7CDFE3AE07A48844208D10121E8
:100A70004020FFF7C5FE00214020FFF7C1FE2EE019
:100A80007548844208D101218020FFF7B9FE00217A
:100A90008020FFF7B5FE22E07048844208D1012192
:100AA0008015FFF7ADFE0021A015FFF7A9FE16E0A7
:100AB0006B48844208D101214015FFF7A1FE0021B7
:100AC0006015FFF79DFE0AE06648844207D10121C8
:100AD0000015FFF795FE00212015FFF791FE10BDD0
:100AE000F0B50A4600210023002400BF3DE00125A7
:100AF00005FA01F3156805EA03049C4234D1056840
:100B00004F000326BE40B543056015794E00B54041
:100B10000668354305601579012D02D01579022D3F
:100B200016D185684F000326BE40B54385605579D0
:100B30004E00B540866835438560456801268E4085
:100B4000B5434560456896798E40B6B235434560F9
:100B5000C5684F000326BE40B543C560D5794E0039
:100B6000B540C6683543C560491C1029BFD3F0BDE8
:100B70004FF6FF7101600021017141718171C171F6
:100B8000704708B54FF480320092009A0A430092F1
:100B9000009AC261C161009AC261C2690092C269D1
:100BA000009208BD0246002013690B400BB10120E2
:100BB00000E0002070470146086980B27047024695
:100BC000002053690B400BB1012000E0002070476A
:100BD0000146486980B2704701837047418370477E
:100BE0000AB1018300E04183704741617047426967
:100BF0004A4042617047F0B5002300244D07ED0ED6
:100C000002FA05F3CE1000F1200555F826504E07E4
:100C1000F70E0F26BE40B543CF1000F1200646F870
:100C20002750CE1000F1200555F8265045EA030460
:100C3000CE1000F1200545F82640F0BD000002402E
:100C40000004024000080240000C02400010024074
:100C50000014024000180240001C02400020024024
:100C6000002402400028024010B50446FB4884429C
:100C700008D101218014FFF707FE0021A014FFF71F
:100C800003FE3CE0F648844208D101210014FFF73E
:100C9000EAFD00212014FFF7E6FD30E0F148844230
:100CA00008D10121C013FFF7DEFD0021E013FFF79B
:100CB000DAFD24E0EC48844208D101214014FFF71A
:100CC000E3FD00216014FFF7DFFD18E0E7488442F0
:100CD00009D101210805FFF7D7FD00214FF480104D
:100CE000FFF7D2FD0BE0E248844208D1012148051C
:100CF000FFF7CAFD00214FF40010FFF7C5FD10BD3E
:100D000010B50022028802F441520B884C8823431C
:100D10008C882343CC8823430C8923434C89234369
:100D20008C892343CC8923431A430280838B4FF25F
:100D3000FF74234083830B8A038210BD2DE9F04F9B
:100D40000025022300244FF001090022002600277D
:100D500094469046B0F81CA04FF2400B0AEA0B0AEA
:100D6000A0F81CA04FF0020AA0F820A0858BD1F8B3
:100D700008A0BAF1020F01D100BF82E0B1F804A0CF
:100D8000BAF1000F02D14FF0010901E04FF0020962
:100D9000DFF8E0A2DAF800A00AF4000ABAF1000FC6
:100DA00009D0DFF8D0A2DAF800A02AF4000ADFF8B0
:100DB000C4B2CBF800A0DFF8BCA20AF17C0ADAF8D2
:100DC00000A0CAF3881CDFF8ACA20AF17C0ADAF8AA
:100DD00000A0CAF30278DFF89CA2AAF1040ADAF8AC
:100DE00000A00AF03F07DFF88CA2AAF1040ADAF8A3
:100DF00000A00AF4800ABAF5800F08D1DFF878A2C3
:100E0000BAFBF7FA0AFB0CFABAFBF8F607E0DFF8D0
:100E10006CA2BAFBF7FA0AFB0CFABAFBF8F6B1F8C7
:100E200006A0BAF5007F0ED14FEA162A0AEB8A0A0D
:100E30004FEA4A0AD1F808B0BAFBFBFA0AF1050AF0
:100E40001FFA8AF20FE04FEA491AB6FBFAFA0AEBE8
:100E50008A0A4FEA4A0AD1F808B0BAFBFBFA0AF14B
:100E6000050A1FFA8AF24FF00A0AB2FBFAF202F000
:100E70000104A2EB040ACAF34F034FF6FF7A0AEA11
:100E80000424022B01DBFF2B01DD02230024B1F837
:100E900006A04AEA040A4AEA030AA0F820A0B1F828
:100EA00004A0B1F80CB04AEA0B0AB1F802B04AEA61
:100EB0000B0AB1F800B04AEA0B0A4AF4006A4AEA9F
:100EC00005058583BDE8F08F002101804180818088
:100ED000C180018141818181C181072101827047E7
:100EE0000021018041808180C18002218160002138
:100EF0008181704721B1028842F04002028004E003
:100F000002884FF6BF731A400280704721B1828B6E
:100F100042F48062828304E0828B4FF6FF331A40F2
:100F20008283704702884FF2FF731A400280028862
:100F30000A4302807047B1F5804F04D1028842F421
:100F40008042028004E002884BF6FF731A40028060
:100F500070474FF6FF62914204D0028842F48072DB
:100F6000028004E002884FF6FF631A400280704757
:100F700021B1828842F00402828004E082884FF628
:100F8000FB731A408280704721B1828842F01002C0
:100F9000828004E082884FF6EF731A4082807047A7
:100FA00030B500220023848B4FF240052C4084830F
:100FB00002240484828B0C88B4F5007F01D00C8855
:100FC00014B94FF4807308E00C88B4F5407F03D067
:100FD0000C88B4F5807F00D100238C888D892C4348
:100FE0004D882C431C4344F400642243828330BD6B
:100FF0000146888970478181704721B1028842F497
:101000000052028004E002884DF6FF731A4002800D
:101010007047018841F480510180704702460020EA
:10102000012901D0108B00E0908A70470146088AA0
:1010300070471AB183880B43838002E083888B4317
:101040008380704730B5002400230C110125A54092
:10105000ABB2AAB185881D43858014E00030014001
:1010600000380040003C0040003401400050014086
:10107000005401400838024040787D010024F4000B
:1010800085889D43858030BD0246002013890B4032
:101090000BB1012000E000207047CA430281704775
:1010A000F0B50246002000240023002501F00F07C0
:1010B0000126BE40B4B20B1101269E40B3B2968801
:1010C00006EA03051689264016B10DB1012000E09D
:1010D0000020F0BD10B5002201F00F040123A34051
:1010E0009AB2D343038110BD016821F00101016070
:1010F0000021016041608160C16001612121416185
:10110000DB49884204D13D21D94A103A91608CE0F4
:10111000D7491831884205D14FF47461D44A103A46
:10112000916082E0D2493031884205D14FF4741188
:10113000CF4A103A916078E0CD494831884205D1D4
:101140004FF07461CA4A103A91606EE0C84960314C
:10115000884204D1C749C64A103AD16065E0C44903
:101160007831884204D1C449C14A103AD1605CE068
:10117000BF499031884204D1C049BD4A103AD1607C
:1011800053E0BB49A831884205D14FF03D51B84AE0
:10119000103AD16049E0BA49884204D13D21B84AA9
:1011A000083A116041E0B6491831884205D14FF440
:1011B0007461B34A083A116037E0B149303188426E
:1011C00005D14FF47411AE4A083A11602DE0AC49D4
:1011D0004831884205D14FF07461A94A083A11603C
:1011E00023E0A7496031884204D1A249A44A121FD2
:1011F00011601AE0A2497831884204D19E49A04A80
:10120000121F116011E09E499031884204D19B4920
:101210009B4A121F116008E09949A831884204D105
:101220004FF03D51964A121F1160704710B50022D1
:101230000268944B1A40CC680B6823434C692343E3
:101240008C692343CC6923430C6A23434C6A2343B0
:101250008C6A23434C6B23438C6B23431A430260F9
:10126000426922F00702D1E90B3423431A43426159
:101270000B6943604B6883608B68C36010BD0021BD
:10128000016041608160C160016141618161C16152
:10129000016241628162C16201634163816370479F
:1012A00021B1026842F00102026003E0026822F00C
:1012B00001020260704721B1026842F400420260FC
:1012C00003E0026822F400420260704721B1026824
:1012D00042F02002026003E0026822F02002026075
:1012E0007047416070470146486880B2704722B13C
:1012F000036843F40023036003E0036823F400233E
:1013000003600161704721B1026842F480220260EB
:1013100003E0026822F48022026070470AB1016192
:1013200000E0C1607047014600200A6802F4002214
:101330000AB1012000E000207047014600200A6841
:1013400002F001020AB1012000E0002070470146CE
:1013500000204A6902F03800704730B503460A465B
:1013600000200024464DAB4202D24149103901E031
:101370004349103902F000550DB14C6800E00C688B
:10138000414D2C4004EA02050DB1012000E000208F
:1013900030BD02463A4B9A4202D23548103801E03D
:1013A0003748103801F000531BB1374B0B40C36076
:1013B00002E0354B0B408360704710B501F08003AD
:1013C0004BB122B1436943F08003436103E04369B9
:1013D00023F08003436180290BD02AB1036801F018
:1013E0001E042343036004E0036801F01E04A343CA
:1013F000036010BD70B50246002000240025204E79
:10140000B24202D21A4B103B01E01D4B103B1F4E63
:101410000E4036B11E2606EAD124166806EA0405F7
:1014200002E0566906F0800501F000560EB15C68D6
:1014300000E01C68144E344004EA010616B10DB1F8
:10144000012000E0002070BD02460D4B9A4202D2FE
:101450000748103801E00A48103801F000531BB16A
:10146000094B0B40C36002E0074B0B4083607047A1
:10147000106002403D000020400F002000003D2091
:10148000106402403F801CF07D0F7D0F3C0F3C0F2D
:1014900010B50446FE48844208D101210846FFF7F2
:1014A000F3F900210120FFF7EFF99DE0B4F1804F3F
:1014B00008D101210846FFF7D6F900210120FFF7E6
:1014C000D2F991E0F348844208D101210220FFF7CC
:1014D000CAF900210220FFF7C6F985E0EE488442F0
:1014E00008D101210420FFF7BEF900210420FFF7F5
:1014F000BAF979E0E948844208D101210820FFF7D0
:10150000B2F900210820FFF7AEF96DE0E44884420B
:1015100008D101211020FFF7A6F900211020FFF7C4
:10152000A2F961E0DF48844208D101212020FFF7C1
:101530009AF900212020FFF796F955E0DA48844215
:1015400008D101210220FFF79FF900210220FFF7B7
:101550009BF949E0D548844209D101210804FFF7ED
:1015600093F900214FF48030FFF78EF93CE0D0482A
:10157000844209D101214804FFF786F900214FF484
:101580000030FFF781F92FE0CA48844209D10121D8
:101590008804FFF779F900214FF48020FFF774F9F0
:1015A00022E0C548844208D101214020FFF75BF9C1
:1015B00000214020FFF757F916E0C048844208D1C7
:1015C00001218020FFF74FF900218020FFF74BF920
:1015D0000AE0BB48844207D101218015FFF743F997
:1015E0000021A015FFF73FF910BD00220288A84B8B
:1015F00098420ED0AC4B98420BD0B0F1804F08D03F
:10160000A44B984205D0A44B984202D0A34B9842D9
:1016100004D14FF68F731A404B881A43A04B98425F
:1016200007D0A04B984204D04FF6FF431A400B89D5
:101630001A4302804B68C3620B880385944B98421F
:1016400002D0994B984201D18B7A03860123838281
:1016500070474FF0FF3141600021018001814180DE
:10166000817270470185828270470A460021018895
:101670004FF68F73194011430180704741627047E4
:10168000C16270470146486A70470146088D70473D
:1016900021B1028842F00202028004E002884FF683
:1016A000FD731A400280704721B1028842F00402A3
:1016B000028004E002884FF6FB731A4002807047F4
:1016C00021B1028842F08002028004E002884FF6D5
:1016D0007F731A400280704702884FF6F7731A40F2
:1016E000028002880A430280704702884FF6FF4357
:1016F0001A40028002880A430280704721B10288A2
:1017000042F00102028004E002884FF6FE731A40A4
:101710000280704770B5002400220023058C4FF62C
:10172000FE7635400584028C8388048B4FF68F75D6
:101730002C40B51E2C400D882C43751E2A408D89E7
:101740002A434D882A43524DA84202D0564DA84202
:1017500013D14FF6F7752A40CD892A434FF6FB7512
:101760002A408D882A434FF6FF652B404FF6FF55E0
:101770002B400D8A2B434D8A2B43838004838D6835
:101780004563028470BD70B5002400220023058CDF
:101790004FF6EF7635400584028C8388048B48F63B
:1017A000FF752C404FF6FF452C400D884FF6FF7615
:1017B00006EA05252C434FF6DF752A408D8906EA97
:1017C00005152A434D8806EA05152A43304DA842DF
:1017D00002D0354DA8421DD14FF67F752A40CD89E4
:1017E0004FF6FF7606EA05152A434FF6BF752A40E5
:1017F0008D8806EA05152A434FF6FF352B404FF238
:10180000FF752B400D8A06EA85052B434D8A06EAB3
:1018100085052B43838004838D688563028470BDB6
:1018200070B5002400220023058C4FF6FF6635407A
:101830000584028C8388848B4FF68F752C404FF67D
:10184000FC752C400D882C434FF6FF552A408D899E
:101850004FF6FF7606EA05252A434D8806EA052558
:101860002A430B4DA84202D00F4DA84238D14FF267
:10187000FF752A40CD894FF6FF7606EA05252A43F3
:101880004FF6FF352A408D8806EA05252A4319E0E0
:10189000000001400004004000080040000C00402F
:1018A00000100040001400400004014000400140CE
:1018B000004401400048014000180040001C004066
:1018C000002000404EF6FF752B404DF6FF752B4073
:1018D0000D8A06EA05152B434D8A06EA05152B43AA
:1018E000838084838D68C563028470BD70B50022D7
:1018F00000230024058C4EF6FF7635400584038CCA
:101900008488828B48F6FF752A404FF6FF452A40AF
:101910000D884FF6FF7606EA05252A434DF6FF753A
:101920002B408D8906EA05352B434D8806EA05359F
:101930002B43FE4DA84202D0FD4DA84208D14BF6E4
:10194000FF752C400D8A4FF6FF7606EA85152C436D
:10195000848082838D680564038470BD00210180CA
:101960004180818081608181C18101824182704793
:1019700070B50346002000241846183001258D401C
:10198000ACB21D8CA5431D8409B108290AD100EB16
:10199000610005684FF68F76354005600568154390
:1019A00005600FE00D1FC5F34E052844056848F695
:1019B000FF763540056005684FF6FF7606EA022699
:1019C0003543056070BD4163704781637047C163F3
:1019D0007047016470470A460021018B4FF68F73F0
:1019E00019401143018370470A460021018B48F6D4
:1019F000FF7319404FF6FF7303EA02231943018373
:101A000070470A460021818B4FF68F7319401143AE
:101A1000818370470A460021818B48F6FF73194085
:101A20004FF6FF7303EA02231943818370470A4686
:101A30000021018B4FF6F773194011430183704762
:101A40000A460021018B4FF2FF7319404FF6FF73D6
:101A500003EA02231943018370470A460021818B60
:101A60004FF6F77319401143818370470A460021EE
:101A7000818B4FF2FF7319404FF6FF7303EA022385
:101A80001943818370470A460021018B4FF6FB738F
:101A900019401143018370470A460021018B4FF61C
:101AA000FF3319404FF6FF7303EA02231943018302
:101AB00070470A460021818B4FF6FB731940114392
:101AC000818370470A460021818B4FF6FF3319400E
:101AD0004FF6FF7303EA02231943818370470A46D6
:101AE0000021018B4FF67F7319401143018370472A
:101AF0000A460021018BC1F30E014FF6FF7303EA82
:101B000002231943018370470A460021818B4FF657
:101B10007F7319401143818370470A460021818BEE
:101B2000C1F30E014FF6FF7303EA022319438183C9
:101B300070470A460021018C4FF6FD73194011438E
:101B4000018470470A460021018C4FF6F773194053
:101B50001143018470470A460021018C4FF6DF7360
:101B600019404FF6FF7303EA0213194301847047CB
:101B70000A460021018C4FF67F7319404FF6FF7320
:101B800003EA02131943018470470A460021018CBD
:101B90004FF6FF5319404FF6FF7303EA0223194330
:101BA000018470470A460021018C4FF2FF731940EF
:101BB0004FF6FF7303EA02231943018470470A4674
:101BC0000021018C4DF6FF7319404FF6FF7303EAB5
:101BD000023319430184704730B5002301248C403F
:101BE000A3B2048C9C430484048C02FA01F5ADB2C8
:101BF0002C43048430BD30B5002304248C40A3B2B0
:101C0000048C9C430484048C02FA01F5ADB22C438D
:101C1000048430BD828B4FF2FF331A408283828B63
:101C20004FF6FF7303EA01231A4382837047F0B52E
:101C30000C461546002100220026078C4EF6FF7C3C
:101C400007EA0C070784818B028C4FF6FF7707EABF
:101C5000043640F6FF4739404FF6FF7707EA05277D
:101C600039434FF6FF7707EA0337394345F6FF77E5
:101C70003A4046F480573A4381830284F0BD828B18
:101C80004FF6F3731A408283828B0A438283704734
:101C9000F0B50C461546002100220026078C4FF6B1
:101CA000FF6C07EA0C070784818B028C4FF6FF77E5
:101CB00007EA04264FF60C7739404FF6FF7707EA1C
:101CC00003172F4339434FF2FF573A4046F48077CA
:101CD0003A4381830284F0BD028B4FF2FF331A40F6
:101CE0000283028B4FF6FF7303EA01231A43028338
:101CF0007047F0B50C461546002100220026078CDF
:101D00004FF6EF7C07EA0C070784018B028C4FF635
:101D1000FF7707EA041640F6FF4739404FF6FF7792
:101D200007EA033739434FF6FF7703E0000001402D
:101D30000004014007EA052739434FF65F773A4030
:101D400046F010073A4301830284F0BD028B4FF640
:101D5000F3731A400283028B0A4302837047F0B583
:101D60000C46154600210022068C4FF6FE773E40B9
:101D70000684018B028C4FF60C7631407E1C06EAFD
:101D800003162E4331434FF6F576324044F00106F8
:101D9000324301830284F0BD70B505460C462088AD
:101DA00050B92389A28861882846FFF7D8FFE188C7
:101DB0002846FFF7CBFF25E0208804280AD1238995
:101DC000A28861882846FFF794FFE1882846FFF73C
:101DD00083FF17E0208808280AD12389A288618818
:101DE0002846FFF755FFE1882846FFF748FF09E03E
:101DF0002389A28861882846FFF719FFE1882846D1
:101E0000FFF708FF70BD0021018041800121818022
:101E10000021C180018170472DE9F04105460C4643
:101E200000260127608808B9022600E00026A08865
:101E3000012801D1022700E001272088A0B92389C9
:101E4000A28861882846FFF78AFFE1882846FFF7C5
:101E50007DFF23893A4631462846FFF74AFFE1884D
:101E60002846FFF739FF13E02389A28861882846B6
:101E7000FFF73FFFE1882846FFF72EFF23893A4608
:101E800031462846FFF76BFFE1882846FFF75EFFE3
:101E9000BDE8F0810146486B70470146886B70478A
:101EA0000146C86B70470146086C70470A884B882A
:101EB0001A438B881A43CB881A430B891A434B89E0
:101EC0001A438B891A43A0F84420704700210180EF
:101ED00041808180C180018141818181704731B120
:101EE000B0F8442042F40042A0F8442005E0B0F8E5
:101EF0004420C2F30E02A0F84420704721B182882A
:101F000042F00402828004E082884FF6FB731A409C
:101F10008280704721B1828842F00102828004E011
:101F200082884FF6FE731A40828070471AB1838907
:101F30000B43838102E083898B43838170478182D5
:101F4000704702460020138A0B400BB1012000E0CD
:101F500000207047CA430282704730B50246002015
:101F600000230024158A05EA0103958905EA010486
:101F700013B10CB1012000E0002030BDCA43028241
:101F8000704741EA0203A0F8483070471AB18389CC
:101F90000B43838102E083898B438381704721B1A6
:101FA000828842F00802828004E082884FF6F7734C
:101FB0001A408280704701894FF6F8721140018102
:101FC00070470A46002101894FF68F73194011436B
:101FD0000181704730B504460D4629462046FFF77B
:101FE000F0FF208940F00700208130BD2DE9F0414D
:101FF00004460D4616461F46602D06D13B4601227B
:1020000031462046FFF775FE05E03B46012231468A
:102010002046FFF7A4FE29462046FFF7D2FF20897D
:1020200040F007002081BDE8F08130B50C4600216A
:102030000189C9B24FF6FF7505EA0325154325430B
:102040002943018130BD2DE9F04105460E46174672
:102050009846002443463A4631462846FFF7E5FFB6
:102060002C894FF6F870044044F007044FF68F7047
:10207000044044F070042C81BDE8F081F0B50446C2
:102080000D4616461F463B46324629462046FFF778
:10209000CCFF208940F480402081F0BD82884FF63B
:1020A0008F731A40828082880A4382807047028937
:1020B0004FF6F8731A40028102890A430281704781
:1020C00002894FF67F731A40028102890A43028116
:1020D0007047F0B50C4615461E460021002200232D
:1020E0000189028B038C4FF6F877394021434FF674
:1020F000FC473A4040F201173A434FF6DD773B4048
:102100004FF6FF7707EA06172F433B43018102830F
:102110000384F0BD21B1828842F08002828004E015
:1021200082884FF67F731A4082807047A0F8501063
:102130007047000010B58B480068401C8949086052
:102140008948006820B188480068401E86490860B8
:1021500003F0C1FB002438E0844850F8240090B319
:10216000824850F82400007B68B3804850F824006F
:10217000806840B37D4850F824008068401E7B4949
:1021800051F824108860794850F824008068D0B94C
:10219000764A52F824205069744A52F82420116972
:1021A0008847724850F824000168704850F82400AD
:1021B00081606E4850F82400406820B900216B48C7
:1021C00050F824000173601CC4B26848001F0078F6
:1021D000A042C1DC10BD30B5654800684FF47A728A
:1021E000B0FBF2F1481EB0F1807F01D301201BE06B
:1021F000481E4FF0E022506150170F22002807DAE6
:1022000013071D0E5B4B00F00F04241F1D5503E048
:1022100013071C0E584B1C5400BF00204FF0E02247
:10222000906107201061002008B100BFFEE7504810
:1022300000685249B0FBF1F0514908600120514952
:10224000087030BD4F48007800B970474FF0E0206B
:10225000006940F002004FF0E021086100BFF4E7A0
:102260004FF0E020006920F002004FF0E02108610B
:1022700070472DE9F04705460E4617469846DDF8AB
:1022800020903A48001F0078052802DB0020BDE8B6
:10229000F087182003F0A8FE04460CB90020F6E7EA
:1022A00025602068A06066602773C4F81080C4F8B9
:1022B00014902E48001F01780078401C2B4A121FF2
:1022C0001070101D40F821402046E0E72DE9F04154
:1022D0000646002407E0254850F82400B04200D10B
:1022E00006E0601CC4B22148001F0078A042F2DC66
:1022F00000BF1E48001F0078A04201D1BDE8F08158
:102300001A4850F8247000BFEFF31080054672B6EB
:1023100007E01648611C50F8211040F82410601C9A
:10232000C4B21248001F0078401EA042F1DC0F48E2
:10233000001F0078401E0D49091F087005B962B6DC
:10234000384603F080FE00BFD8E7002101737047D4
:1023500001210173704701688160704741607047D7
:1023600001607047140000201800002004010020C4
:10237000EC00002018ED00E000E400E0C0C62D00F5
:102380001C000020200000201CB5032000210B466B
:102390000122CDE9001041031D4801F0A1FC4FF4DA
:1023A000C0401B491A3108801CBD1CB50020022109
:1023B00003460246CDE900100121164801F090FCC9
:1023C0001CBD1448006900F0010080F0010030B924
:1023D0001148007830B901200F490870704700207B
:1023E0000D4908700020F9E70A48006900F0010073
:1023F00080F0010038B10848007838B10020064963
:102400000870012070470120034908700020F9E797
:1024100000180240000002402100002002461088FF
:1024200000F0400008B90020704700BF108900F09C
:1024300003000028FAD0108900F080000028F5D1B0
:10244000918100BF108900F003000028FAD01089A4
:1024500000F080000028F5D19089C0B2E4E770B5A3
:1024600004460420FE4908807E2000EA440040F033
:102470008001FC48FFF7D2FF0021FA48FFF7CEFFAA
:1024800005460420F649891E0880284670BD70B5AF
:1024900004460D460420F24908807E2000EA4401EB
:1024A000F048FFF7BBFF2946EE48FFF7B7FF0420CF
:1024B000EB49891E088070BD70B505460C4628465C
:1024C000FFF7CDFF40EA040631462846FFF7DFFF5D
:1024D00070BD10B51420FFF7C2FF044604F00300DE
:1024E00018B903211420FFF7E7FF10BD10B50F2125
:1024F0000120FFF7CCFF10BD1CB501214020FEF7E5
:1025000016F902208DF8050001208DF80400002046
:102510008DF806008DF80700042000906946D04829
:102520001A38FEF7DDFA0420CD49891E08801CBD4B
:1025300010B5FFF7E1FF0121CA4800F0C5FBFFF726
:10254000D5FF8D212A20FFF7A2FF3E212B20FFF788
:102550009EFF1E212D20FFF79AFF00212C20FFF760
:1025600096FF70212620FFF792FF40211520FFF7EC
:102570008EFF3D211120FFF78AFFFFF7AAFF10BD54
:1025800070B505460C462846FFF769FF20EA0406A9
:1025900031462846FFF77BFF70BD2DE9FE4F06460A
:1025A000884691469A46DDF830B00220029000201D
:1025B000019000900C2E06D00E2E09D11220019011
:1025C0001020009005E0772001903020009000E07E
:1025D00000BF00BF019840F080010220FFF757FFC5
:1025E00080210420FFF7CCFF80210A20FFF764FF41
:1025F00000210120FFF74BFF002506E018F8051029
:102600000920FFF744FF681C85B24D45F6DB3146D3
:102610000120FFF73CFF0C2E03D180210D20FFF796
:102620004BFF4FF4FA6500BF0420FFF718FF044684
:10263000681E85B235B104F0010018B90098204039
:102640000028F1D080210D20FFF79AFF002D37D010
:102650000620FFF704FF00F01B0070BB0020029073
:102660000198204000F0010008B1012002900C2EDA
:1026700026D10A20FFF7F3FE04460C20FFF7EFFEF9
:1026800000F007072FB1601E07EBC000ABF8000099
:1026900002E0E000ABF8000004B90124102C00DDDA
:1026A0001024002506E00920FFF7D9FE0AF80500EE
:1026B000681C85B2A542F6DB02E0FFE7022002902B
:1026C0000298BDE8FE8F2DE9F04107468846154681
:1026D00004210520FFF754FF80210A20FFF7ECFEBC
:1026E000002405E0395D0920FFF7D1FE601CC4B26B
:1026F0004445F7DB03210120FFF7C9FEFF2400BF9B
:102700000520FFF7ACFE0646601EC4B21CB106F001
:1027100004000028F4D02220FFF7A1FE2870212019
:10272000FFF79DFE6870BDE8F0810EB550208DF872
:10273000040000208DF805000DF10602022101A819
:10274000FFF7C1FF02A801AB042201A900900C20F1
:10275000FFF723FF0EBD2DE9FC41044600270021B1
:102760000D20FFF794FE932020702020607001A8B8
:1027700023460222214600900C20FFF70EFF06465A
:102780005EB9002503E0605D4740681CC5B2042DBA
:10279000F9DB605DB84200D002263046BDE8FC811E
:1027A0007CB506460C4607210D20FFF770FE26700B
:1027B00001A823460122214600900C20FFF7EDFEE0
:1027C00005461DB9BDF80400102800D00225284692
:1027D0007CBD70B5044621462620FFF7E1FF054683
:1027E0001DB92046FFF7B7FF0546FFF79EFF2846B5
:1027F00070BD10B502460B46002107E0505C5C5CE2
:10280000A04201D0022010BD481CC1B20529F5DB51
:102810000020F8E710B503211420FFF7B1FE10BD2A
:10282000F0B585B0074693208DF8040070208DF830
:102830000500002405E0395D01AAA01C1154601CAC
:10284000C4B2052CF7DB0DF10B02072101A8FFF73D
:102850003AFF04A801AB092201A900900C2003E073
:102860001A18024000300140FFF797FE054635B9BF
:10287000BDF81000182802D19DF8046000E0002681
:10288000304605B0F0BD2DE9F04385B006460F4651
:10289000904699468DF804608DF80570002406E096
:1028A00018F8041001AAA01C1154601CC4B2062C14
:1028B000F6DB002407E019F8041001AA04F108006F
:1028C0001154601CC4B2042CF5DB04A801AB0C222B
:1028D00001A900900E20FFF760FE05462DB90820E3
:1028E000FFF7BDFD00F0080000B90225284605B03D
:1028F000BDE8F0837CB505460C463020207065703D
:10290000A21C02212046FFF7DEFE01A82346042276
:10291000214600900C20FFF740FE06461EB9BDF888
:102920000400902800D0022630467CBDF0B587B068
:1029300006460F46A0208DF804008DF805600DF1C5
:102940000602022101A8FFF7BEFE06A801AB042281
:1029500001A900900C20FFF720FE05464DB9BDF8F7
:102960001800042805D19DF8040000F00F000A2883
:1029700000D0022515BB002404E0385D01A90855EC
:10298000601CC4B2102CF8DB05AA102101A8FFF7C7
:102990009AFE06A801AB122201A900900C20FFF7B5
:1029A000FCFD05464DB9BDF81800042805D19DF879
:1029B000040000F00F000A2800D00225284607B0C6
:1029C000F0BD000070471CB5044654B90520032132
:1029D00000231A46CDE900104FF4E041FE4801F013
:1029E00097F9032C03D10521FC48FFF7EBFF1CBD31
:1029F0001CB5044654B90520032100231A46CDE92D
:102A000000104FF46071F64801F082F9012C13D1E7
:102A10000520032100231A46CDE90010E102F04809
:102A200001F076F90520032100231A46CDE90010B4
:102A3000C021EC4801F06CF9032C03D10521EA48D0
:102A4000FFF7C0FF1CBD1CB504464CB9052003218F
:102A500000231A46CDE900106421E44801F058F93A
:102A6000012C0AD10520032100231A46CDE90010CC
:102A70004FF4E041DD4801F04BF9032C03D105216F
:102A8000DB48FFF79FFF1CBD1CB504464CB9062070
:102A9000032100231A46CDE900103821D54801F062
:102AA00037F9012C0AD10620032100231A46CDE96B
:102AB00000104FF4E051D04801F02AF9032C03D163
:102AC0000621CE48FFF77EFF1CBD1CB50446A4B905
:102AD0000520032100231A46CDE900104FF4806140
:102AE000C44801F015F90520032100231A46CDE959
:102AF00000100C21C04801F00BF9012C0AD105206F
:102B0000032100231A46CDE900104FF46041B94873
:102B100001F0FEF8022C09D10520032100231A46FA
:102B2000CDE900100D21B64801F0F2F8032C03D1D5
:102B30000521B448FFF746FF1CBD1CB504464CB93F
:102B40000520032100231A46CDE90010E021AE48FC
:102B500001F0DEF8012C09D10520032100231A46DB
:102B6000CDE900103821A34801F0D2F8032C03D19D
:102B70000521A648FFF726FF1CBD2DE9F04385B0CF
:102B800004460E4615461F46DDE90C896846FEF7E9
:102B90009BF99E4884420BD19D48006840F48050C8
:102BA0009B4908603046FFF7C8FF0020ADF80400DD
:102BB000944884420DD19648001F006840F480403C
:102BC0009349091F08603046FFF77FFF0020ADF8EA
:102BD00004008A4884420DD18D48001F006840F4EB
:102BE00000408B49091F08603046FFF74DFF002069
:102BF000ADF804007E4884420BD18548006840F45B
:102C00000050834908603046FFF71DFF0020ADF8F3
:102C10000400754884420BD17D48006840F4801060
:102C20007B4908603046FFF7E3FE0020ADF8040062
:102C30006A4884420BD17648006840F40010744919
:102C400008603046FFF7BFFE0020ADF80400ADF885
:102C50000C700020ADF80000ADF80E90ADF80280C9
:102C60004FF40070ADF80A002DB90020ADF8060051
:102C7000ADF8080019E0012D06D10020ADF80600DE
:102C80000120ADF8080010E0022D06D10220ADF8B9
:102C900006000020ADF8080007E0032D05D1022052
:102CA000ADF806000120ADF80800208820F04000B3
:102CB000208069462046FEF723F8208840F0400037
:102CC000208005B0BDE8F0837CB504460D464F4832
:102CD00084420AD100204FF4827120230246CDE9BC
:102CE000001029462046FFF748FF464884420AD193
:102CF00000204FF4827120230246CDE900102946BE
:102D00002046FFF73AFF3D4884420AD100204FF4A5
:102D1000827120230246CDE9001029462046FFF7A4
:102D20002CFF334884420AD100204FF482712023C3
:102D30000246CDE9001029462046FFF71EFF2A482B
:102D400084420AD100204FF4827103460246CDE945
:102D5000001029462046FFF710FF204884420AD180
:102D600000204FF4827120230246CDE9001029464D
:102D70002046FFF702FF7CBD7CB504460D46164693
:102D8000224884420AD100204FF482712023324627
:102D9000CDE9001029462046FFF7EFFE194884428E
:102DA0000AD100204FF4827120233246CDE9001071
:102DB00029462046FFF7E1FE104884420AD1002050
:102DC0004FF4827120233246CDE900102946204677
:102DD000FFF7D3FE06481DE00018024000540140F2
:102DE00000140240001C024000500140001002404C
:102DF000003401400004024000080240003C004052
:102E00000020024000380040000002400030014035
:102E10004438024084420AD100204FF482712023BA
:102E20003246CDE9001029462046FFF7A6FECB48E2
:102E300084420AD100204FF4827103463246CDE924
:102E4000001029462046FFF798FEC54884420AD163
:102E500000204FF4827120233246CDE9001029462C
:102E60002046FFF78AFE7CBD2DE9FC4704468946D3
:102E700017469846DDE90A56BA48844206D13B46D1
:102E800042464946CDE90056FFF777FEB6488442F0
:102E900006D13B4642464946CDE90056FFF76DFE56
:102EA000B248844206D13B4642464946CDE90056E7
:102EB000FFF763FEAE48844206D13B464246494690
:102EC000CDE90056FFF759FEA448844206D13B469F
:102ED00042464946CDE90056FFF74FFEA0488442DE
:102EE00006D13B4642464946CDE90056FFF745FE2E
:102EF000BDE8FC872DE9FF4104460E461EB9382087
:102F000004B0BDE8F0816846FDF740FB9548844277
:102F100008D09748844205D09048844202D0904817
:102F2000844201D1039F00E0029F00250AE0681C53
:102F300001218140B7FBF1F0B04201D8E800DFE7A2
:102F4000681CC5B2082DF2DB3820D9E70246138889
:102F5000C3F3C020138823F040031380012904D158
:102F6000138843F40063138003E0138823F40063A1
:102F70001380138843F040031380704730B50C462C
:102F8000058805F0400505B930BD00BF058905F08D
:102F90000305002DFAD0058905F08005002DF5D137
:102FA00000210FE0655C858100BF058905F0030500
:102FB000002DFAD0058905F08005002DF5D1858911
:102FC0005554491C9942EDD300BFDDE710B50B46BF
:102FD000048804F0400404B910BD00BF048904F063
:102FE0000304002CFAD0048904F08004002CF5D1ED
:102FF00000210EE05C5C848100BF048904F00304BE
:10300000002CFAD0048904F08004002CF5D18489C6
:10301000491C9142EED300BFDEE730B50C4605886F
:1030200005F0400505B930BD00BF058905F0030571
:10303000002DFAD0058905F08005002DF5D100217D
:103040000EE0828100BF058905F00305002DFAD04E
:10305000058905F08005002DF5D185896554491C49
:103060009942EED300BFDEE730B50C46058805F087
:10307000400505B930BD00BF058905F00305002DE9
:10308000FAD0058905F08005002DF5D1002111E069
:1030900034F81150858100BF058905F00305002D26
:1030A000FAD0058905F08005002DF5D1858922F833
:1030B0001150491C9942EBD300BFDBE710B50B461A
:1030C000048804F0400404B910BD00BF048904F072
:1030D0000304002CFAD0048904F08004002CF5D1FC
:1030E00000210FE033F81140848100BF048904F00F
:1030F0000304002CFAD0048904F08004002CF5D1DC
:103100008489491C9142EDD300BFDDE730B50C4600
:10311000058805F0400505B930BD00BF058905F0FB
:103120000305002DFAD0058905F08005002DF5D1A5
:1031300000210FE0828100BF058905F00305002D05
:10314000FAD0058905F08005002DF5D1858924F890
:103150001150491C9942EDD300BFDDE700500140FA
:10316000005401400030014000380040003C004065
:10317000003401400246108800F0400008B90020E9
:10318000704700BF108900F003000028FAD01089B2
:1031900000F080000028F5D1918100BF108900F077
:1031A00003000028FAD0108900F080000028F5D133
:1031B0009089C0B2E4E710B504464FF40051FE48D0
:1031C000FDF70CFD0421FD48FDF708FD2146FC48F4
:1031D000FFF7D0FF0421F948FDF7FEFC10BD10B544
:1031E00004464FF40051F448FDF7F6FC0421F3487F
:1031F000FDF7F4FC2146F248FFF7BCFF0421EF483D
:10320000FDF7EAFC10BD2DE9F04104460D461646D7
:103210001F462A20FFF7CFFF2012FFF7E0FFE0B2A2
:10322000FFF7DDFF3012FFF7DAFFF0B2FFF7D7FF4D
:103230002B20FFF7C0FF2812FFF7D1FFE8B2FFF7FE
:10324000CEFF3812FFF7CBFFF8B2FFF7C8FFBDE89B
:10325000F0812DE9F04705460E4617469846DDF801
:10326000209043463A4631462846FFF7CCFF2C20B3
:10327000FFF7A1FF781B401CA8EB0601491C00FBCF
:1032800001F40421CD48FDF7A9FC4FF40051CA48D0
:10329000FDF7A2FC0121CA48FFF758FEB4F5803FB4
:1032A00002D34FF6FF7000E0204682B24946C44880
:1032B00000F035FF00BFC24800F068FF0028FAD1D7
:1032C000B4F5803F0BD3601C82B24946BC4800F085
:1032D00026FF00BFBA4800F059FF0028FAD10421A8
:1032E000B648FDF779FC0021B548FFF72FFEBDE891
:1032F000F08738B50446A0B20090B24843880088F1
:10330000401E82B200210846FFF7A3FF38BD01B579
:1033100002E00098401E009000980028F9D108BDF6
:1033200010B54FF48051A448FDF758FC44F62060D6
:10333000FFF7EDFF4FF480519F48FDF74DFC44F639
:103340002060FFF7E4FF0120FFF735FF4CF250301B
:10335000FFF7DDFFCB20FFF72EFF3920FFF73FFF00
:103360002C20FFF73CFF0020FFF739FF3420FFF748
:1033700036FF0220FFF733FFCF20FFF71CFF0020AE
:10338000FFF72DFFC120FFF72AFF3020FFF727FFAF
:10339000E820FFF710FF8520FFF721FF0020FFF74F
:1033A0001EFF7820FFF71BFFEA20FFF704FF002035
:1033B000FFF715FF0020FFF712FFED20FFF7FBFEE0
:1033C0006420FFF70CFF0320FFF709FF1220FFF72F
:1033D00006FF8120FFF703FFF720FFF7ECFE202018
:1033E000FFF7FDFEC020FFF7E6FE2320FFF7F7FE04
:1033F000C120FFF7E0FE1020FFF7F1FEC520FFF728
:10340000DAFE3E20FFF7EBFE2820FFF7E8FEC7209C
:10341000FFF7D1FE8620FFF7E2FE3620FFF7CBFE56
:103420004820FFF7DCFE3A20FFF7C5FE5520FFF7E6
:10343000D6FEB120FFF7BFFE0020FFF7D0FE182018
:10344000FFF7CDFEB620FFF7B6FE0820FFF7C7FE58
:103450008220FFF7C4FE2720FFF7C1FEF220FFF70E
:10346000AAFE0020FFF7BBFE2A20FFF7A4FE0020E3
:10347000FFF7B5FE0020FFF7B2FE0020FFF7AFFE1A
:10348000EF20FFF7ACFE2B20FFF795FE0020FFF7A3
:10349000A6FE0020FFF7A3FE0120FFF7A0FE3F20BD
:1034A000FFF79DFE2620FFF786FE0120FFF797FE1F
:1034B000E020FFF780FE0F20FFF791FE3120FFF79D
:1034C0008EFE2B20FFF78BFE0C20FFF788FE0E20D0
:1034D000FFF785FE0820FFF782FE4E20FFF77FFEF4
:1034E000F120FFF77CFE3720FFF779FE0720FFF77A
:1034F00076FE1020FFF773FE0320FFF770FE0E200C
:10350000FFF76DFE0920FFF76AFE0020FFF767FE58
:10351000E120FFF750FE0020FFF761FE0E20FFF7CD
:103520005EFE1420FFF75BFE0320FFF758FE11201C
:10353000FFF755FE0720FFF752FE3120FFF74FFE41
:10354000C120FFF74CFE4820FFF749FE0820FFF797
:1035500046FE0F20FFF743FE0C20FFF740FE312010
:10356000FFF73DFE3620FFF73AFE0F20FFF737FE4C
:103570001120FFF720FE1448FFF7C9FE2920FFF7AE
:103580001AFE2C20FFF717FE10BD1CB501200021EC
:103590000B460246CDE900104103074800F0A0FBAE
:1035A000012000210B460246CDE90010042103480A
:1035B00000F096FB002009E0000C024000080240E9
:1035C000005001402600002040420F000121034628
:1035D0000A46CDE900100903FE4800F081FB0421F2
:1035E000FD48FDF7F9FA0021FC48FFF76DFBFB48A9
:1035F00000F0A6FCFFF794FE0020F9490880F94985
:103600000880F020F84908804FF4A070488001201D
:1036100008714FF6FF70FFF76CFE1CBD10B5292036
:10362000FFF7C9FD10BD10B52820FFF7C4FD10BD80
:1036300070B505460E46144633462A46314628469E
:10364000FFF7E1FD2C20FFF7B6FDC4F30720FFF7DD
:10365000C6FDE0B2FFF7C3FD70BD10B504463620CD
:10366000FFF7A9FD1CB95820FFF7B9FD10E0012CA8
:1036700003D18820FFF7B3FD0AE0022C03D12820F4
:10368000FFF7ADFD04E0032C02D1E820FFF7A7FD12
:103690000CB1012C08D1F020D34908804FF4A07060
:1036A00048800120087107E04FF4A070CE490880DF
:1036B000F02048800020087110BD2DE9F84F074622
:1036C000884691461C46DDF82CB0C6480780C448A1
:1036D000A0F800802078C34909880844C2490988B5
:1036E000884208DD6078BE4909880844BC490880E2
:1036F0000020BC4908801FFA8BF000906078B84920
:103700000988084483B22078B6490988084482B2FF
:10371000B3480188B3480088FFF79BFD00251EE0F1
:10372000A9F12000617800FB0150616831F810A018
:10373000002610E00AFA06F000F4004050B1A84A52
:1037400012882A4491B2A74A1288324490B20A9A47
:10375000FFF76EFF761C2078B042EBD86D1C6078C6
:10376000A842DDD820789F49098808449D490880EF
:10377000BDE8F88F2DE9FC4705460E4614461F4666
:10378000DDE90A9AA846974805809548068027E013
:1037900020780A2813D17878401C91490988084478
:1037A0008F49088060780D2804D100208D49088059
:1037B000641C02E08B48A0F80080641C10E02078B4
:1037C0000D2801D1641C0BE0CDE9009A14F8012BFF
:1037D0003B468348018883480088FFF76EFF00BF9F
:1037E00020780028D4D1BDE8FC8770B500244D783E
:1037F0001D8002E00D782544ACB210F8016B002E5C
:10380000F8D1148070BD2DE9FF5F04460D461646C1
:103810001F4675480088A04203DC73480088401E9C
:1038200084B271480088B04203DC6F480088401EB3
:1038300086B26D484088A84203DC6B484088401E31
:1038400085B269484088B84203DC67484088401E1A
:1038500087B2B44202DD01943446019EBD4202DDCE
:1038600001953D46019F301B0FFA80F9781B0FFA36
:1038700080F8B9F1000F02D0B8F1000F0AD10E980C
:1038800080B23B463246294600902046FFF7E1FCD5
:10389000BDE8FF9FB44201DA012001E04FF0FF30A4
:1038A0000390BD4201DA012001E04FF0FF300290A9
:1038B000C14501DD494601E0C8F10001084601EBC0
:1038C000D07149100FFA81FA1FE0294620460E9A5E
:1038D000FFF7AEFEB44202D1BD4200D116E0D3469E
:1038E000DA46C9F10000834506DDAAEB08000FFAAD
:1038F00080FA0398204484B2C34506DA0AEB090033
:103900000FFA80FA0298284485B2DEE700BF00BFB4
:10391000BEE72DE9F84305460E4617469846089C33
:1039200033463A46314628460094FFF76CFF43463B
:103930002A46314628460094FFF765FF43463A463B
:10394000314638460094FFF75EFF43463A4641460B
:1039500028460094FFF757FFBDE8F8832DE9F843A8
:1039600004460D4616461F46DDF82090B44202DD9F
:10397000A04634464646BD4202DDA8463D4647467F
:103980001FFA89F03B463246294600902046FFF751
:1039900060FC04211048FDF71FF9BDE8F8832DE90C
:1039A000FF5F05460E469046C8F101000FFA80F908
:1039B0004FF0010A4FEA480040420FFA80FB00270F
:1039C000444606EB080291B2A8B2039AFFF730FE14
:1039D0000CE00000000C02400008024000500140D2
:1039E000240000202200002026000020A6EB080270
:1039F00091B2A8B2039AFFF71BFEB1B205EB080221
:103A000090B2039AFFF714FEB1B2A5EB080290B290
:103A1000039AFFF70DFE4EE0B9F1000F09DB601EBF
:103A200004B20BF102000FFA80FB09EB0B000FFA56
:103A300080F9781C07B20AF102000FFA80FA09EB4C
:103A40000A000FFA80F9321991B2EA1990B2039A7A
:103A5000FFF7EEFD321991B2EA1B90B2039AFFF71D
:103A6000E7FD321B91B2EA1990B2039AFFF7E0FD2D
:103A7000321B91B2EA1B90B2039AFFF7D9FDF219FB
:103A800091B22A1990B2039AFFF7D2FDF21991B2BE
:103A90002A1B90B2039AFFF7CBFDF21B91B22A19B1
:103AA00090B2039AFFF7C4FDF21B91B22A1B90B2A9
:103AB000039AFFF7BDFDA742AEDBBDE8FF9F2DE9EE
:103AC000FC5F05460E4617469946C7F101000FFAFE
:103AD00080FA4FF0010B7800404200B201904FF0A5
:103AE00000083C46F21991B2A8B24A46FFF7A0FD81
:103AF000F21B91B2A8B24A46FFF79AFDB1B2EA1999
:103B000090B24A46FFF794FDB1B2EA1B90B24A4622
:103B1000FFF78EFDB3B205EB070C1FFA8CF2B1B2C2
:103B2000A5EB070C1FFA8CF0CDF80090FFF76BFEA9
:103B300068E0BAF1000F09DB601E04B20198801C36
:103B400000B20190019850440FFA80FA08F1010088
:103B50000FFA80F80BF102000FFA80FB0AEB0B0062
:103B60000FFA80FA06EB040C1FFA8CF305EB080C35
:103B70001FFA8CF206EB040C1FFA8CF1A5EB080C73
:103B80001FFA8CF0CDF80090FFF73DFEA6EB040C79
:103B90001FFA8CF3A5EB080C1FFA8CF2A6EB040CB1
:103BA0001FFA8CF105EB080C1FFA8CF0CDF8009091
:103BB000FFF729FE06EB080C1FFA8CF3A5EB040CAB
:103BC0001FFA8CF206EB080C1FFA8CF105EB040CC3
:103BD0001FFA8CF0CDF80090FFF715FEA6EB080C4D
:103BE0001FFA8CF3A5EB040C1FFA8CF2A6EB080C61
:103BF0001FFA8CF105EB040C1FFA8CF0CDF8009045
:103C0000FFF701FEA04594DBBDE8FC9F01464FF4A1
:103C10000030081AC0F38F2070472DE9F0430446A6
:103C20000E461546DDE907892046FFF7EFFFC7B2CC
:103C3000002243E001209040304000B93CE0B14810
:103C400030F81700012191400843AE4921F81700D0
:103C5000E0684FEA420C032101FA0CF1884351005D
:103C600008FA01F10843E06020684FEA420C0321A2
:103C700001FA0CF18843510005FA01F10843206074
:103C8000012D01D0022D16D161680120904080B233
:103C900021EA000003FA02F189B208436060A068DB
:103CA0004FEA420C032101FA0CF18843510009FA52
:103CB00001F10843A06000BF501CC2B2102AB9DB5A
:103CC000BDE8F08300B502461046FFF79FFF0121D3
:103CD00001FA00F08C49096808438B49086000BD6F
:103CE0002DE9FC4305460C4616461F46DDE90989C9
:103CF0000CB9BDE8FC832846FFF7E4FF3B4632469B
:103D000021462846CDE90089FFF787FF00BFF0E78D
:103D10002DE9FC4705460E4617469846DDE90A9A06
:103D20000EB9BDE8FC872846FFF7CCFF00241AE057
:103D30000120A040304000B914E0E10805F1200066
:103D400050F821006107CA0E0F2191408843610796
:103D5000C90E0AFA01F10843E20805F1200141F811
:103D6000220000BF641C102CE2D33B4602223146E5
:103D70002846CDE90089FFF750FF00BFD1E770B5B5
:103D800003460C461846FFF741FFC5B2002214E077
:103D900001209040204070B1186856000321B140C6
:103DA00008431860574830F81500012191408843B6
:103DB000544921F81500501CC2B2102AE8DB70BD2E
:103DC00030B5024600200BE0012383400B402BB1AD
:103DD000136845000324AC40A3431360431CD8B2CE
:103DE0001028F1DB30BD30B5024600200FE0012382
:103DF00083400B404BB1136845000324AC40A34300
:103E000045000124AC4023431360431CD8B2102862
:103E1000EDDB30BD30B5024600200BE001238340CE
:103E20000B402BB1136845000324AC4023431360BF
:103E3000431CD8B21028F1DB30BD30B5024600205B
:103E400011E0012383400B4003B90AE013684500E9
:103E50000324AC40A34345000224AC402343136039
:103E600000BF431CD8B21028EBDB30BD70B5034651
:103E7000002011E0012484400C4004B90AE0DC6811
:103E800046000325B540AC43450002FA05F52C4336
:103E9000DC6000BF441CE0B21028EBDB70BD41F4D5
:103EA0008032C261C161C261C369C36970470146A2
:103EB000002002E0421C90B249100129FADC704750
:103EC00000B502461046FFF7A1FE012181400E48D1
:103ED000006888430C49086000BD00B502461046E2
:103EE000FFF794FE074931F8100000BD00B5024607
:103EF0001046FFF78BFE034931F81000C04380B233
:103F000000BD000018010020303802400146BF4AC1
:103F1000914200D1BE48BF4A914200D1BE48BF4A3B
:103F2000914200D1BE48BF4A914200D1BE48BF4A2B
:103F3000914200D1BE48BF4A914200D1BE4870476D
:103F400070B505462846FFF7E1FF0446BB496068A7
:103F5000884206D3BA48006840F48000B849086037
:103F600005E0B748006840F40010B5490860B3495F
:103F7000E068884206D3B248006840F48000B04947
:103F8000086005E0AE48006840F40010AC490860E5
:103F90000020AC494861C861086248628862C86212
:103FA00008634863886370BD2DE9F04780460D467D
:103FB00016461F46DDF820904046FFF7A7FF04464F
:103FC000C4F80890E760266065604046FFF7B8FFD8
:103FD000BDE8F08770B505462846FFF797FF044611
:103FE0006068FDF781F8E068FDF77EF870BD2DE9A7
:103FF000F04105460E46174698462846FFF786FFCD
:104000000446E068406820B96068406808B91EB995
:1040100017B90020BDE8F0810020A082894908621C
:10402000C86105F10C0048600846C0F8108020689F
:1040300008604020C8602EB1084686604FF480605A
:10404000886105E004F110007E49886000208861E5
:104050003D21606800F0F8F87A496068FDF7E6F8FD
:104060007849A06808600020C8602FB108468760C2
:104070004FF48060886105E004F1100071498860A8
:10408000002088613D21E06800F0DEF86D49E068BD
:10409000FDF7CCF8E068006840F00100E1680860D6
:1040A0006068006840F0010061680860A88840F01E
:1040B0000300A8800120ADE72DE9F04105460E463A
:1040C00017462846FFF722FF04466068406810B193
:1040D0000020BDE8F081266105F10C0059494860D7
:1040E0000846076100208861206808604020C86099
:1040F00000200862C8613D21606800F0A5F85149C0
:104100006068FDF793F86068006840F0010061683E
:104110000860A88840F00200A8800120D9E72DE9B6
:10412000F04105460E4617462846FFF7EFFE0446C7
:104130006068406810B10020BDE8F081A68205F1FA
:104140000C00404948600846076104F1140088608B
:1041500000208861206808604020C860C0010862B3
:104160008010C8613D21606800F06EF835496068D4
:10417000FDF75CF86068006840F001006168086065
:10418000A88840F00200A8800120D5E770B5044659
:104190002046FFF7BBFE0546E868406850B96868EE
:1041A000406838B9208900F0030018B1208900F078
:1041B000800008B1012070BD0020FCE710B5044666
:1041C0002046FFF7A3FE406810BD10B50446204608
:1041D000FFF79CFEC06810BD70B505462846FFF786
:1041E00095FE0446606800F07AF8E06800F077F821
:1041F00070BD70B505462846FFF788FE0446606826
:1042000000F0A3F8E06800F0A0F870BD00300140B5
:10421000300000200038004048000020003C0040F2
:104220006000002000340140780000200050014070
:104230009000002000540140A800002010640240BB
:10424000303802403001002030B502460B46A64C03
:10425000A24207D2A549A54C0834141B1825B4FB6B
:10426000F5F006E0A04908399F4C141B1825B4FB53
:10427000F5F0042801D3091D001F03F03D049C4DF7
:104280002D5CAC400C6030BD10B504463D2120468D
:10429000FFF7DAFF10BD70B502460C46002100237F
:1042A0000020914DAA4208D2904B083B8F4D083513
:1042B000551B1826B5FBF6F106E08B4B103B8A4DDB
:1042C000551B1826B5FBF6F1042901D31B1D091F48
:1042D0001868874D6D5CE84000F03D0070BD38B552
:1042E00004463D212046FFF7AFFF7F4884420DD2B0
:1042F0007E480830201A1821B0FBF1F501208DF816
:1043000001007C48405D8DF800000CE07648201AE2
:104310001821B0FBF1F501208DF801007548083037
:10432000405D8DF8000001208DF80300E8B28DF8A3
:1043300002006846FBF7B3FF206840F01E002060D3
:10434000606940F08000606138BD30B504463D21B1
:104350002046FFF779FF6448844208D2634808305A
:10436000201A1821B0FBF1F062490D5606E05E48B4
:10437000201A1821B0FBF1F05E490D5600BF05F080
:104380001F01012088405C496A0941F8220000BFF2
:10439000206820F01E002060606900F080006061ED
:1043A00030BD7047704770477047704770B504461E
:1043B0003D212046FFF76FFF85B23D212046FFF7E4
:1043C00043FF05F0200030B1206800F0100010B16C
:1043D0002046FFF7E6FF05F0100030B1206800F03E
:1043E000080010B12046FFF7DDFF05F0080030B1EE
:1043F000206800F0040010B12046FFF7D4FF05F05C
:10440000040030B1206800F0020010B12046FFF730
:10441000CBFF05F0010030B1606900F0800010B101
:104420002046FFF7C2FF70BD10B530480830FFF7D7
:10443000BDFF10BD10B52D482030FFF7B7FF10BDF0
:1044400010B52A483830FFF7B1FF10BD10B5274826
:104450005030FFF7ABFF10BD10B524486830FFF7B0
:10446000A5FF10BD10B521488030FFF79FFF10BD9C
:1044700010B51E489830FFF799FF10BD10B51B48C6
:10448000B030FFF793FF10BD10B51748FFF78EFF50
:1044900010BD10B514481830FFF788FF10BD10B5D7
:1044A00011483030FFF782FF10BD10B50E4848307C
:1044B000FFF77CFF10BD10B50B486030FFF776FFAB
:1044C00010BD10B508487830FFF770FF10BD10B56B
:1044D00005489030FFF76AFF10BD10B50248A830BC
:1044E000FFF764FF10BD0000106402400860024046
:1044F0007A6700087E67000880E100E030B52DEDA6
:10450000048B89B004460D46B0EE408AF0EE608A16
:10451000F748844202D0F748844204D1042009B00D
:10452000BDEC048B30BD2C606946204600F0BCFE1B
:10453000009802F07AF841EC190B53EC182B02F0BA
:1045400087F801D20120EAE79FEDEB0B53EC102B2B
:1045500051EC180B02F000F801D10220DFE7B0EEB9
:10456000480AF0EE680A684600F0E9FE039808B9C8
:104570000120D4E751EC180B02F02AF8E86053EC64
:10458000182B9FEDDF0B51EC100B01F08DFE41EC71
:10459000190B02F01DF82861039868600498A86060
:1045A000204600F031FF0498401E80B2ADF818009C
:1045B0000020ADF81A000398401E07900020ADF8C7
:1045C00020008DF8220006A92046FDF70EF80121F3
:1045D0002046FDF775F8CC48844202D0CB4884428F
:1045E00003D101212046FDF77AFC208840F001002C
:1045F0002080002085F8240000BF90E77CB50446A9
:104600000D46062604BB15B1012D19D10BE009207A
:10461000032100231A46CDE900108021BC48FFF792
:1046200077FB00260EE00920032100231A46CDE97E
:1046300000104FF40071B748FFF76AFB002601E055
:10464000062600BF00BF01E0052600BF00BF3046C0
:104650007CBD7CB504460D46062604BB15B1012D74
:1046600019D10BE00920032100231A46CDE90010DF
:104670000221A748FFF74CFB00260EE0092003218A
:1046800000231A46CDE900104FF48071A148FFF7CE
:104690003FFB002601E0062600BF00BF01E0052623
:1046A00000BF00BF30467CBD7CB505460C460626E3
:1046B00015B1012D43D120E014B1012C19D10CE02A
:1046C0000920032100231A46CDE900104FF4804150
:1046D0009148FFF71DFB00260DE009200321002370
:1046E0001A46CDE9001040218C48FFF711FB002647
:1046F00001E0062600BF00BF23E014B1012C1AD14F
:104700000CE00920032100231A46CDE900104FF4E4
:1047100000418148FFF7FCFA00260EE00920032142
:1047200000231A46CDE900104FF400717B48FFF7D3
:10473000EFFA002601E0062600BF00BF01E00526D3
:1047400000BF00BF30467CBD7CB504460D46062642
:10475000F4B915B1012D17D10BE00320009000230F
:104760001A464FF4007101906B48FFF7D1FA00260A
:104770000CE00320009000231A4680210190654838
:10478000FFF7C6FA002601E0062600BF00BF01E0E1
:10479000052600BF00BF30467CBD7CB504460D46F3
:1047A0000626F4B915B1012D17D10BE003200090B6
:1047B00000231A464FF4807101905748FFF7A8FA7A
:1047C00000260CE00320009000231A4640210190AF
:1047D0005048FFF79DFA002601E0062600BF00BF03
:1047E00001E0052600BF00BF30467CBD7CB5054614
:1047F0000C46062615B1012D3CD11DE014B1012C4B
:1048000016D10AE00320009000231A4604210190EB
:104810003F48FFF77DFA00260CE0032000900023BC
:104820001A46202101903E48FFF772FA002601E067
:10483000062600BF00BF1FE014B1012C16D10AE00C
:104840000320009000231A46082101903048FFF70A
:104850005FFA00260CE00320009000231A46402156
:1048600001902F48FFF754FA002601E0062600BF0A
:1048700000BF01E0052600BF00BF30467CBD7CB50F
:1048800005460C46062635B1012D22D0022D5CD0FE
:10489000032D75D179E014B1012C16D10AE0032063
:1048A000009000231A46402101901E48FFF730FA7D
:1048B00000260CE00320009000231A4620210190DE
:1048C0001948FFF725FA002601E0062600BF00BFC1
:1048D0007DE014B1012C34D128E0032000900023A6
:1048E0001A46802101900F48FFF712FA00262AE0AD
:1048F0000010004000140040000000000000000014
:104900000000000080842E410000014000040140AE
:10491000000002400014024000040240001C02405B
:1049200000100240000802400020024003200090D6
:1049300000231A4640210190FB48FFF7E9F90026C1
:1049400001E0062600BF00BF41E014B1012C18D1E0
:104950000BE00320009000231A464FF48071019071
:10496000F248FFF7D5F900260DE003200090002360
:104970001A4680210190EC48FFF7CAF9002602E0B0
:1049800023E0062600BF00BF21E014B1012C18D19E
:104990000BE00320009000231A464FF400710190B1
:1049A000E248FFF7B5F900260DE003200090002350
:1049B0001A464FF480710190DB48FFF7A9F90026F1
:1049C00001E0062600BF00BF01E0052600BF00BFD2
:1049D00030467CBD7CB505460C46062635B1012D1A
:1049E00024D0022D42D0032D70D15FE014B1012CF0
:1049F00018D10BE00220032100231A46CDE9001054
:104A00000121CB48FFF784F900260DE002200321A5
:104A100000231A46CDE900104102C648FFF778F995
:104A2000002601E0062600BF00BF62E014B1012CA1
:104A300018D10BE00220032100231A46CDE9001013
:104A40000146BB48FFF764F900260DE00220032170
:104A500000231A46CDE900108102B648FFF758F945
:104A6000002601E0062600BF00BF42E014B1012C81
:104A700018D10BE00220032100231A46CDE90010D3
:104A80000421AB48FFF744F900260DE00220032182
:104A900000231A46CDE90010C102A648FFF738F9F5
:104AA000002601E0062600BF00BF22E014B1012C61
:104AB00019D10CE00220032100231A46CDE9001091
:104AC00008219B48FFF724F900260EE00FE00220A2
:104AD000032100231A46CDE9001001219248FFF777
:104AE00017F9002601E0062600BF00BF01E00526F9
:104AF00000BF00BF30467CBD7CB505460C4606268F
:104B000035B1012D24D0022D42D0032D70D15FE0AC
:104B100014B1012C18D10BE00220032100231A4606
:104B2000CDE9001040218448FFF7F2F800260DE09F
:104B30000220032100231A46CDE90010C1027F485C
:104B4000FFF7E6F8002601E0062600BF00BF62E09E
:104B500014B1012C18D10BE00220032100231A46C6
:104B6000CDE9001080217448FFF7D2F800260DE04F
:104B70000220032100231A46CDE9001001036F48EB
:104B8000FFF7C6F8002601E0062600BF00BF42E09E
:104B900014B1012C18D10BE00220032100231A4686
:104BA000CDE90010C1016448FFF7B2F800260DE01E
:104BB0000220032100231A46CDE9001041035F487B
:104BC000FFF7A6F8002601E0062600BF00BF22E09E
:104BD00014B1012C19D10CE00220032100231A4644
:104BE000CDE9001001025448FFF792F800260EE0CC
:104BF0000FE00220032100231A46CDE900108103B3
:104C00004E48FFF785F8002601E0062600BF00BFEA
:104C100001E0052600BF00BF30467CBD7CB50546DF
:104C20000C46062635B1012D32D0022D5ED0032D63
:104C300078D189E024B1012C0ED0022C24D117E0C8
:104C40000220032100231A46CDE9001040213848F4
:104C5000FFF75EF8002619E00220032100231A4620
:104C6000CDE9001010213448FFF752F800260DE07E
:104C70000220032100231A46CDE9001041022B48EF
:104C8000FFF746F8002601E0062600BF00BF7DE0E2
:104C900024B1012C0ED0022C24D117E002200321D4
:104CA00000231A46CDE9001080212148FFF730F893
:104CB000002619E00220032100231A46CDE9001046
:104CC00020211D48FFF724F800260DE002200321D3
:104CD00000231A46CDE9001080211448FFF718F888
:104CE000002601E0062600BF00BF4FE014B1012CF2
:104CF00026D10BE00220032100231A46CDE9001043
:104D000001210D48FFF704F800261BE002200321D3
:104D100000231A46CDE90010C1010448FEF7F8FF50
:104D200000260FE030E000000020024000080240B2
:104D300000000240001C024000040240000C02403F
:104D4000062600BF00BF21E014B1012C18D10BE0F2
:104D50000220032100231A46CDE900100146FB483A
:104D6000FEF7D6FF00260DE00220032100231A469D
:104D7000CDE900100102F648FEF7CAFF002601E067
:104D8000062600BF00BF01E0052600BF00BF304679
:104D90007CBD7CB505460C46062635B1012D32D0CA
:104DA000022D50D0032D6ED16EE024B1012C0ED017
:104DB000022C24D117E00120032100231A46CDE95B
:104DC00000100146E348FEF7A3FF002619E001208A
:104DD000032100231A46CDE900102021DD48FEF70B
:104DE00097FF00260DE00120032100231A46CDE99C
:104DF0000010C103D748FEF78BFF002601E006260E
:104E000000BF00BF62E014B1012C18D10BE00120FB
:104E1000032100231A46CDE900100221CD48FEF7F8
:104E200077FF00260DE00120032100231A46CDE97B
:104E300000100821C548FEF76BFF002601E006269A
:104E400000BF00BF42E014B1012C18D10BE00120DB
:104E5000032100231A46CDE900100421BD48FEF7C6
:104E600057FF00260DE00120032100231A46CDE95B
:104E700000108102B548FEF74BFF002601E0062630
:104E800000BF00BF22E01FE014B1012C18D10BE0DD
:104E90000120032100231A46CDE900100821AD4866
:104EA000FEF736FF00260DE00120032100231A46FD
:104EB000CDE90010C102A548FEF72AFF002601E057
:104EC000062600BF00BF01E0052600BF00BF304638
:104ED0007CBD7CB505460C46062635B1012D24D097
:104EE000022D42D0032D70D15FE014B1012C18D1F6
:104EF0000BE00120032100231A46CDE90010010236
:104F00009448FEF705FF00260DE001200321002351
:104F10001A46CDE9001041028F48FEF7F9FE00263F
:104F200001E0062600BF00BF62E014B1012C18D1D9
:104F30000BE00120032100231A46CDE900104102B5
:104F40008448FEF7E5FE00260DE001200321002342
:104F50001A46CDE9001081027F48FEF7D9FE0026EF
:104F600001E0062600BF00BF42E014B1012C18D1B9
:104F70000BE00120032100231A46CDE90010810235
:104F80007448FEF7C5FE00260DE001200321002332
:104F90001A46CDE9001041036F48FEF7B9FE00261E
:104FA00001E0062600BF00BF22E014B1012C19D198
:104FB0000CE00120032100231A46CDE90010C102B4
:104FC0006448FEF7A5FE00260EE00FE00120032155
:104FD00000231A46CDE9001081035F48FEF798FED2
:104FE000002601E0062600BF00BF01E0052600BF45
:104FF00000BF30467CBD70B504460D461646574985
:105000002068884204D131462846FFF762FF70BD10
:105010002068B0F1804F04D131462846FFF7B9FE31
:10502000F5E74F492068884204D131462846FFF70A
:10503000F5FDECE74B492068884204D1314628460B
:10504000FFF75AFDE3E748492068884204D131461A
:105050002846FFF7BFFCDAE744492068884204D1BC
:1050600031462846FFF70BFCD1E7414920688842CA
:1050700004D131462846FFF7B9FBC8E73D4920680F
:10508000884204D131462846FFF787FBBFE73A49FB
:105090002068884204D131462846FFF755FBB6E721
:1050A00036492068884204D131462846FFF7FCFA89
:1050B000ADE733492068884204D131462846FFF7DE
:1050C000C8FAA4E72F492068884204D1314628460F
:1050D000FFF794FA9BE7042099E7F0B585B0044602
:1050E0000F4616463D466068B04202D8032005B020
:1050F000F0BD02967020ADF800000120ADF802006E
:105100000220ADF80C0004F1140040F825600120E5
:10511000A840C5B237B1012F36D0022F48D0032F97
:105120006ED159E094F82400284060B994F8240026
:10513000284384F8240069462068FCF7EBFA08212C
:105140002068FCF774FC206846635AE000040240C3
:105150000008024000000240001002400000014030
:105160000004004000080040000C00400004014022
:105170000040014000440140004801400018004048
:10518000001C00400020004094F82400284060B932
:1051900094F82400284384F8240069462068FCF72A
:1051A000F2FA08212068FCF74BFC2068866328E0AF
:1051B00094F82400284060B994F82400284384F827
:1051C000240069462068FCF72BFB08212068FCF7C7
:1051D00044FC2068C66314E094F82400284060B9B9
:1051E00094F82400284384F8240069462068FCF7DA
:1051F0007DFB08212068FCF739FC2068066400E08C
:1052000000BF00BF002072E770B52DED028B044691
:105210000D46B0EE408A9FED230AB4EEC08AF1EE4F
:1052200010FA07DD294620466268FFF756FFBDECFD
:10523000028B70BDB5EEC08AF1EE10FA05D80022DF
:1052400029462046FFF749FFF1E76068401E00EE5F
:10525000100AB8EE400A20EE080ABCEEC00A10EEB2
:10526000100A6421B0FBF1F6324629462046FFF7CA
:1052700034FFDCE72DE9F04104460E46154620696F
:10528000A84202D20320BDE8F0816068401E684356
:105290002169B0FBF1F73A4631462046FFF71DFF82
:1052A000F1E700000000C8427FB504460D4668469D
:1052B000FBF76CF94FF6FF70A860B4F1804F02D095
:1052C000E448844207D1039828604FF0FF306860BB
:1052D000002004B070BDE04884420BD0DF48844217
:1052E00008D0DF48844205D0DE48844202D0DE4840
:1052F000844206D1019828604FF6FF706860002054
:10530000E7E7DA48844211D0D94884420ED0D94820
:1053100084420BD0D848844208D0D848844205D073
:10532000D748844202D0D748844206D103982860E7
:105330004FF6FF7068600020CBE70220C9E710B588
:105340002DED068B0446B0EE408AF0EE608A2068B0
:1053500001F06BF941EC190B53EC182B01F078F9C3
:1053600007D200202061E06060610320BDEC068B65
:1053700010BD9FEDC50B53EC102B51EC180B01F039
:10538000EBF805D100202061E06060610420EDE7CA
:105390006068B0F5803F02D26068401C6060002009
:1053A000206100BF2069401C2168B1FBF0F0E06083
:1053B000E06801F03AF941EC1A0B53EC182B00F0BD
:1053C00073FF41EC190B01F003F9E0602069401C08
:1053D00020616168E068884204D9A068401C2169A6
:1053E0008142DFD9A068401C2169814205D9002093
:1053F0002061E06060610420B8E751EC180B01F017
:10540000E7F860610020B1E701469348814205D189
:105410009F48006840F001009D4A1060B1F1804F44
:1054200007D19B48001F006840F00100984A121FF6
:1054300010608E48814207D19548001F006840F0F7
:105440000200934A121F10608948814207D1904898
:10545000001F006840F004008D4A121F10607D4854
:10546000814207D18A48001F006840F00800884A3E
:10547000121F10607F48814207D18548001F0068D5
:1054800040F01000824A121F10607B48814207D111
:105490007F48001F006840F020007D4A121F106006
:1054A0006E48814205D17A48006840F00200784A8F
:1054B00010606B48814205D17548006840F4803027
:1054C000734A10606748814205D17148006840F412
:1054D00000306F4A10606448814205D16C48006812
:1054E00040F480206A4A10606448814207D16848CD
:1054F000001F006840F04000654A121F10606048BD
:10550000814207D16248001F006840F08000604A75
:10551000121F10605B48814207D15D48001F006880
:1055200040F480705A4A121F1060002070470146F4
:105530004948814205D15648006820F00100544A8C
:105540001060B1F1804F07D15148001F006820F072
:1055500001004F4A121F10604448814207D14C4855
:10556000001F006820F00200494A121F10604048E6
:10557000814207D14648001F006820F00400444AD9
:10558000121F10603348814207D14148001F006854
:1055900020F008003E4A121F10603648814207D1B1
:1055A0003B48001F006820F01000394A121F1060AD
:1055B0003148814207D13648001F006820F02000A2
:1055C000334A121F10602548814205D130480068D7
:1055D00020F002002E4A10602148814205D12C485B
:1055E000006820F480302A4A10601E48814205D1AC
:1055F0002748006820F40030254A10601A4881428C
:1056000005D12348006820F48020214A10601B48FF
:10561000814207D11E48001F006820F040001C4A4C
:10562000121F10601648814207D11948001F0068F8
:1056300020F08000164A121F10601248814207D1E4
:105640001348001F006820F48070114A121F106078
:1056500000207047000C00400000014000040140A1
:105660000040014000440140004801400004004067
:1056700000080040001000400014004000180040E6
:10568000001C00400020004000000000000000005E
:105690004438024001217C4A1180022111800421FA
:1056A00011807A49097809B908211180012803D1AC
:1056B0000121754A921C1180022803D10221724AED
:1056C000921C1180032803D104216F4A921C11807F
:1056D000042803D108216C4A921C118070471CB524
:1056E00004466A48047001200090002302460146E7
:1056F000019065481838FEF7F3FA01200090002366
:1057000002460221019060481838FEF7E9FA0120AC
:10571000009000230246042101905B481838FEF7F0
:10572000DFFA5A48007848B9012000900023024669
:105730000821019054481838FEF7D2FA0120009051
:1057400000231A46022101905148FEF7C9FA0120B0
:10575000009000231A46102101904D48FEF7C0FA30
:105760000120009000231A46082101904848FEF7C6
:10577000B7FA0120009000231A46202101904448E6
:10578000FEF7AEFA0020FFF785FF1CBD41490878FF
:10579000FF21404A1170704701463D4810300068B3
:1057A000C0F3400018B9481E3B4A105C70473848A7
:1057B00010300068C0F3001020B9481E364A121D90
:1057C000105CF3E7324810300068C0F3C00020B925
:1057D000481E314A0832105CE8E72C48007850B97E
:1057E0002B4810300068C0F3401020B9481E2A4AE8
:1057F0000C32105CDAE7FF20D8E700B50120FFF794
:1058000049FF0120FFF7C8FF0346FF2B01D01846D0
:1058100000BD0220FFF73EFF0220FFF7BDFF034659
:10582000FF2B01D01846F3E70320FFF733FF0320D7
:10583000FFF7B2FF0346FF2B01D01846E8E71348F5
:10584000007850B90420FFF725FF0420FFF7A4FFDC
:105850000346FF2B01D01846DAE7FF20D8E700B552
:105860000E480088401C80B20C490880642809DB7F
:1058700008480078FF2805D100200880FFF7BDFF09
:105880000449087000BD0000180C0240E800002028
:1058900000080240E9000020D8000020EA000020B3
:1058A00008B5F7490968009100BFEFF3058139B9E0
:1058B00000BFF3490968009A891A8142F9D309E0C7
:1058C00006E04FF0E021096901F4803101B1401E8A
:1058D0000028F6D108BD10B5FFF7C1FF10BD92B08A
:1058E0004FF46175E7A003C8CDE90401E7A103C93E
:1058F000CDE90201002600F0DDFAFCF76CFCFCF7B4
:1059000043FDFDF742FE0220FDF7A7FEFCF710FE67
:105910000020FFF7E4FE9FEDDF0B08A92807FEF744
:10592000EDFD0122002108A8FFF765FB2A460021B2
:1059300008A8FFF79FFC4FF47A70FFF7B1FF9DE1D5
:1059400006A8FCF746FF00287CD1012E04D04FF6B4
:10595000FF70FDF7CEFC012604A906A8FCF749FF5D
:10596000002841D1B5F5617F1AD14FF4C8754FF6C3
:10597000FF704FF4FC61C94BC9A2CDE9001064214E
:105980000A20FDF7F7FE4FF6FF704FF4FC61C34BA2
:10599000C7A2CDE9001096210F20FDF7EBFE19E01C
:1059A0004FF461754FF6FF704FF4FC61BB4BC4A21E
:1059B000CDE9001064210A20FDF7DCFE4FF6FF70F0
:1059C0004FF4FC61B54BC1A2CDE9001096210F2028
:1059D000FDF7D0FE2A46002108A8FFF74BFC40F651
:1059E000B830FFF75DFF49E102A906A8FCF701FF07
:1059F00048BB4FF6FF704FF4FC61A84BB7A2CDE94E
:105A0000001064211920FDF7B5FE4FF4C872002183
:105A100008A8FFF72FFC4FF6FF704FF4FC619F4B77
:105A2000A3A2CDE9001096210F20FDF7A3FE40F6BA
:105A3000B830FFF735FF4FF46172002108A8FFF777
:105A400019FC1BE119E0FFE74FF6FF704FF47841B6
:105A5000924BA6A2CDE9001082210A20FDF78AFE12
:105A60004FF6FF704FF478418C4BA4A2CDE90010A3
:105A700096210A20FDF77EFE00E126B14FF6FF7069
:105A8000FDF737FC0026FFF781FE0446FF2C73D09C
:105A9000102C72D2DFE804F00815222F3C4956631F
:105AA000727F8C99A6B3C0CD4FF6FF704FF4FC61A6
:105AB0007A4B96A2CDE9001064210A20FDF75AFE28
:105AC000C5E04FF6FF704FF4FC61744B90A2CDE936
:105AD000001064210A20FDF74DFEB8E04FF6FF707C
